{
  "_format": "hh3-artifact-1",
  "contractName": "NftPackages",
  "sourceName": "contracts/NftPackages.sol",
  "abi": [
    {
      "inputs": [
        {
          "internalType": "address",
          "name": "admin",
          "type": "address"
        },
        {
          "internalType": "address",
          "name": "tokenReward",
          "type": "address"
        }
      ],
      "stateMutability": "nonpayable",
      "type": "constructor"
    },
    {
      "inputs": [
        {
          "internalType": "address",
          "name": "sender",
          "type": "address"
        },
        {
          "internalType": "uint256",
          "name": "tokenId",
          "type": "uint256"
        },
        {
          "internalType": "address",
          "name": "owner",
          "type": "address"
        }
      ],
      "name": "ERC721IncorrectOwner",
      "type": "error"
    },
    {
      "inputs": [
        {
          "internalType": "address",
          "name": "operator",
          "type": "address"
        },
        {
          "internalType": "uint256",
          "name": "tokenId",
          "type": "uint256"
        }
      ],
      "name": "ERC721InsufficientApproval",
      "type": "error"
    },
    {
      "inputs": [
        {
          "internalType": "address",
          "name": "approver",
          "type": "address"
        }
      ],
      "name": "ERC721InvalidApprover",
      "type": "error"
    },
    {
      "inputs": [
        {
          "internalType": "address",
          "name": "operator",
          "type": "address"
        }
      ],
      "name": "ERC721InvalidOperator",
      "type": "error"
    },
    {
      "inputs": [
        {
          "internalType": "address",
          "name": "owner",
          "type": "address"
        }
      ],
      "name": "ERC721InvalidOwner",
      "type": "error"
    },
    {
      "inputs": [
        {
          "internalType": "address",
          "name": "receiver",
          "type": "address"
        }
      ],
      "name": "ERC721InvalidReceiver",
      "type": "error"
    },
    {
      "inputs": [
        {
          "internalType": "address",
          "name": "sender",
          "type": "address"
        }
      ],
      "name": "ERC721InvalidSender",
      "type": "error"
    },
    {
      "inputs": [
        {
          "internalType": "uint256",
          "name": "tokenId",
          "type": "uint256"
        }
      ],
      "name": "ERC721NonexistentToken",
      "type": "error"
    },
    {
      "inputs": [
        {
          "internalType": "address",
          "name": "owner",
          "type": "address"
        }
      ],
      "name": "OwnableInvalidOwner",
      "type": "error"
    },
    {
      "inputs": [
        {
          "internalType": "address",
          "name": "account",
          "type": "address"
        }
      ],
      "name": "OwnableUnauthorizedAccount",
      "type": "error"
    },
    {
      "anonymous": false,
      "inputs": [
        {
          "indexed": true,
          "internalType": "address",
          "name": "owner",
          "type": "address"
        },
        {
          "indexed": true,
          "internalType": "address",
          "name": "approved",
          "type": "address"
        },
        {
          "indexed": true,
          "internalType": "uint256",
          "name": "tokenId",
          "type": "uint256"
        }
      ],
      "name": "Approval",
      "type": "event"
    },
    {
      "anonymous": false,
      "inputs": [
        {
          "indexed": true,
          "internalType": "address",
          "name": "owner",
          "type": "address"
        },
        {
          "indexed": true,
          "internalType": "address",
          "name": "operator",
          "type": "address"
        },
        {
          "indexed": false,
          "internalType": "bool",
          "name": "approved",
          "type": "bool"
        }
      ],
      "name": "ApprovalForAll",
      "type": "event"
    },
    {
      "anonymous": false,
      "inputs": [
        {
          "indexed": true,
          "internalType": "address",
          "name": "previousOwner",
          "type": "address"
        },
        {
          "indexed": true,
          "internalType": "address",
          "name": "newOwner",
          "type": "address"
        }
      ],
      "name": "OwnershipTransferStarted",
      "type": "event"
    },
    {
      "anonymous": false,
      "inputs": [
        {
          "indexed": true,
          "internalType": "address",
          "name": "previousOwner",
          "type": "address"
        },
        {
          "indexed": true,
          "internalType": "address",
          "name": "newOwner",
          "type": "address"
        }
      ],
      "name": "OwnershipTransferred",
      "type": "event"
    },
    {
      "anonymous": false,
      "inputs": [
        {
          "indexed": true,
          "internalType": "uint256",
          "name": "orderId",
          "type": "uint256"
        },
        {
          "indexed": true,
          "internalType": "address",
          "name": "user",
          "type": "address"
        },
        {
          "indexed": false,
          "internalType": "uint256",
          "name": "interest",
          "type": "uint256"
        }
      ],
      "name": "PackageClaimed",
      "type": "event"
    },
    {
      "anonymous": false,
      "inputs": [
        {
          "indexed": true,
          "internalType": "uint256",
          "name": "packageId",
          "type": "uint256"
        },
        {
          "indexed": false,
          "internalType": "address",
          "name": "token",
          "type": "address"
        },
        {
          "indexed": false,
          "internalType": "uint256",
          "name": "minPrice",
          "type": "uint256"
        },
        {
          "indexed": false,
          "internalType": "uint256",
          "name": "maxPrice",
          "type": "uint256"
        },
        {
          "indexed": false,
          "internalType": "uint256",
          "name": "priceOnTokenBase",
          "type": "uint256"
        },
        {
          "indexed": false,
          "internalType": "uint256",
          "name": "interestPercent",
          "type": "uint256"
        },
        {
          "indexed": false,
          "internalType": "uint256",
          "name": "duration",
          "type": "uint256"
        }
      ],
      "name": "PackageCreated",
      "type": "event"
    },
    {
      "anonymous": false,
      "inputs": [
        {
          "indexed": true,
          "internalType": "uint256",
          "name": "orderId",
          "type": "uint256"
        },
        {
          "indexed": true,
          "internalType": "uint256",
          "name": "tokenId",
          "type": "uint256"
        },
        {
          "indexed": true,
          "internalType": "address",
          "name": "user",
          "type": "address"
        },
        {
          "indexed": false,
          "internalType": "uint256",
          "name": "packageId",
          "type": "uint256"
        },
        {
          "indexed": false,
          "internalType": "uint256",
          "name": "amount",
          "type": "uint256"
        }
      ],
      "name": "PackagePurchased",
      "type": "event"
    },
    {
      "anonymous": false,
      "inputs": [
        {
          "indexed": true,
          "internalType": "uint256",
          "name": "packageId",
          "type": "uint256"
        },
        {
          "indexed": false,
          "internalType": "enum INftPackages.PackageStatus",
          "name": "status",
          "type": "uint8"
        }
      ],
      "name": "PackageStatusUpdated",
      "type": "event"
    },
    {
      "anonymous": false,
      "inputs": [
        {
          "indexed": true,
          "internalType": "uint256",
          "name": "orderId",
          "type": "uint256"
        },
        {
          "indexed": true,
          "internalType": "address",
          "name": "user",
          "type": "address"
        },
        {
          "indexed": false,
          "internalType": "uint256",
          "name": "totalPayout",
          "type": "uint256"
        }
      ],
      "name": "PackageWithdrawn",
      "type": "event"
    },
    {
      "anonymous": false,
      "inputs": [
        {
          "indexed": true,
          "internalType": "address",
          "name": "user",
          "type": "address"
        },
        {
          "indexed": false,
          "internalType": "uint256",
          "name": "amount",
          "type": "uint256"
        }
      ],
      "name": "ReferrerRewardClaimed",
      "type": "event"
    },
    {
      "anonymous": false,
      "inputs": [
        {
          "indexed": true,
          "internalType": "address",
          "name": "from",
          "type": "address"
        },
        {
          "indexed": true,
          "internalType": "address",
          "name": "to",
          "type": "address"
        },
        {
          "indexed": true,
          "internalType": "uint256",
          "name": "tokenId",
          "type": "uint256"
        }
      ],
      "name": "Transfer",
      "type": "event"
    },
    {
      "inputs": [],
      "name": "_admin",
      "outputs": [
        {
          "internalType": "address",
          "name": "",
          "type": "address"
        }
      ],
      "stateMutability": "view",
      "type": "function"
    },
    {
      "inputs": [],
      "name": "_tokenReward",
      "outputs": [
        {
          "internalType": "contract IERC20",
          "name": "",
          "type": "address"
        }
      ],
      "stateMutability": "view",
      "type": "function"
    },
    {
      "inputs": [],
      "name": "acceptOwnership",
      "outputs": [],
      "stateMutability": "nonpayable",
      "type": "function"
    },
    {
      "inputs": [
        {
          "components": [
            {
              "internalType": "uint256",
              "name": "id",
              "type": "uint256"
            },
            {
              "internalType": "address",
              "name": "token",
              "type": "address"
            },
            {
              "internalType": "uint256",
              "name": "minPrice",
              "type": "uint256"
            },
            {
              "internalType": "uint256",
              "name": "maxPrice",
              "type": "uint256"
            },
            {
              "internalType": "uint256",
              "name": "priceOnTokenBase",
              "type": "uint256"
            },
            {
              "internalType": "uint256",
              "name": "interestPercent",
              "type": "uint256"
            },
            {
              "internalType": "uint256",
              "name": "duration",
              "type": "uint256"
            },
            {
              "internalType": "enum INftPackages.PackageStatus",
              "name": "status",
              "type": "uint8"
            }
          ],
          "internalType": "struct INftPackages.Package",
          "name": "package",
          "type": "tuple"
        }
      ],
      "name": "addPackage",
      "outputs": [],
      "stateMutability": "nonpayable",
      "type": "function"
    },
    {
      "inputs": [
        {
          "internalType": "address",
          "name": "to",
          "type": "address"
        },
        {
          "internalType": "uint256",
          "name": "tokenId",
          "type": "uint256"
        }
      ],
      "name": "approve",
      "outputs": [],
      "stateMutability": "nonpayable",
      "type": "function"
    },
    {
      "inputs": [
        {
          "internalType": "address",
          "name": "owner",
          "type": "address"
        }
      ],
      "name": "balanceOf",
      "outputs": [
        {
          "internalType": "uint256",
          "name": "",
          "type": "uint256"
        }
      ],
      "stateMutability": "view",
      "type": "function"
    },
    {
      "inputs": [
        {
          "internalType": "address",
          "name": "token",
          "type": "address"
        },
        {
          "internalType": "address",
          "name": "user",
          "type": "address"
        },
        {
          "internalType": "uint256",
          "name": "packageId",
          "type": "uint256"
        },
        {
          "internalType": "uint256",
          "name": "amount",
          "type": "uint256"
        },
        {
          "internalType": "address",
          "name": "referrer",
          "type": "address"
        }
      ],
      "name": "buyPackage",
      "outputs": [
        {
          "internalType": "uint256",
          "name": "",
          "type": "uint256"
        }
      ],
      "stateMutability": "payable",
      "type": "function"
    },
    {
      "inputs": [
        {
          "internalType": "uint256",
          "name": "orderId",
          "type": "uint256"
        }
      ],
      "name": "claim",
      "outputs": [
        {
          "internalType": "uint256",
          "name": "",
          "type": "uint256"
        }
      ],
      "stateMutability": "nonpayable",
      "type": "function"
    },
    {
      "inputs": [
        {
          "internalType": "address",
          "name": "user",
          "type": "address"
        }
      ],
      "name": "claimRefEarned",
      "outputs": [
        {
          "internalType": "uint256",
          "name": "",
          "type": "uint256"
        }
      ],
      "stateMutability": "nonpayable",
      "type": "function"
    },
    {
      "inputs": [
        {
          "internalType": "uint256",
          "name": "tokenId",
          "type": "uint256"
        }
      ],
      "name": "getApproved",
      "outputs": [
        {
          "internalType": "address",
          "name": "",
          "type": "address"
        }
      ],
      "stateMutability": "view",
      "type": "function"
    },
    {
      "inputs": [
        {
          "internalType": "uint256",
          "name": "orderId",
          "type": "uint256"
        }
      ],
      "name": "getInterest",
      "outputs": [
        {
          "internalType": "uint256",
          "name": "",
          "type": "uint256"
        }
      ],
      "stateMutability": "view",
      "type": "function"
    },
    {
      "inputs": [
        {
          "internalType": "uint256",
          "name": "orderId",
          "type": "uint256"
        }
      ],
      "name": "getOrder",
      "outputs": [
        {
          "components": [
            {
              "internalType": "uint256",
              "name": "id",
              "type": "uint256"
            },
            {
              "internalType": "uint256",
              "name": "tokenId",
              "type": "uint256"
            },
            {
              "internalType": "address",
              "name": "user",
              "type": "address"
            },
            {
              "internalType": "uint256",
              "name": "packageId",
              "type": "uint256"
            },
            {
              "internalType": "uint256",
              "name": "amount",
              "type": "uint256"
            },
            {
              "internalType": "uint256",
              "name": "interestPerDay",
              "type": "uint256"
            },
            {
              "internalType": "uint256",
              "name": "interestEarned",
              "type": "uint256"
            },
            {
              "internalType": "uint256",
              "name": "createdAt",
              "type": "uint256"
            },
            {
              "internalType": "uint256",
              "name": "lastUpdatedAt",
              "type": "uint256"
            },
            {
              "internalType": "uint256",
              "name": "endedAt",
              "type": "uint256"
            }
          ],
          "internalType": "struct INftPackages.Order",
          "name": "",
          "type": "tuple"
        }
      ],
      "stateMutability": "view",
      "type": "function"
    },
    {
      "inputs": [
        {
          "internalType": "address",
          "name": "user",
          "type": "address"
        }
      ],
      "name": "getOrdersByUser",
      "outputs": [
        {
          "components": [
            {
              "internalType": "uint256",
              "name": "id",
              "type": "uint256"
            },
            {
              "internalType": "uint256",
              "name": "tokenId",
              "type": "uint256"
            },
            {
              "internalType": "address",
              "name": "user",
              "type": "address"
            },
            {
              "internalType": "uint256",
              "name": "packageId",
              "type": "uint256"
            },
            {
              "internalType": "uint256",
              "name": "amount",
              "type": "uint256"
            },
            {
              "internalType": "uint256",
              "name": "interestPerDay",
              "type": "uint256"
            },
            {
              "internalType": "uint256",
              "name": "interestEarned",
              "type": "uint256"
            },
            {
              "internalType": "uint256",
              "name": "createdAt",
              "type": "uint256"
            },
            {
              "internalType": "uint256",
              "name": "lastUpdatedAt",
              "type": "uint256"
            },
            {
              "internalType": "uint256",
              "name": "endedAt",
              "type": "uint256"
            }
          ],
          "internalType": "struct INftPackages.Order[]",
          "name": "",
          "type": "tuple[]"
        }
      ],
      "stateMutability": "view",
      "type": "function"
    },
    {
      "inputs": [
        {
          "internalType": "uint256",
          "name": "packageId",
          "type": "uint256"
        }
      ],
      "name": "getPackage",
      "outputs": [
        {
          "components": [
            {
              "internalType": "uint256",
              "name": "id",
              "type": "uint256"
            },
            {
              "internalType": "address",
              "name": "token",
              "type": "address"
            },
            {
              "internalType": "uint256",
              "name": "minPrice",
              "type": "uint256"
            },
            {
              "internalType": "uint256",
              "name": "maxPrice",
              "type": "uint256"
            },
            {
              "internalType": "uint256",
              "name": "priceOnTokenBase",
              "type": "uint256"
            },
            {
              "internalType": "uint256",
              "name": "interestPercent",
              "type": "uint256"
            },
            {
              "internalType": "uint256",
              "name": "duration",
              "type": "uint256"
            },
            {
              "internalType": "enum INftPackages.PackageStatus",
              "name": "status",
              "type": "uint8"
            }
          ],
          "internalType": "struct INftPackages.Package",
          "name": "",
          "type": "tuple"
        }
      ],
      "stateMutability": "view",
      "type": "function"
    },
    {
      "inputs": [
        {
          "internalType": "address",
          "name": "user",
          "type": "address"
        }
      ],
      "name": "getUser",
      "outputs": [
        {
          "components": [
            {
              "internalType": "address",
              "name": "user",
              "type": "address"
            },
            {
              "internalType": "address",
              "name": "referrer",
              "type": "address"
            },
            {
              "internalType": "uint256",
              "name": "totalRef",
              "type": "uint256"
            },
            {
              "internalType": "uint256",
              "name": "refEarned",
              "type": "uint256"
            },
            {
              "internalType": "uint256",
              "name": "refClaimed",
              "type": "uint256"
            }
          ],
          "internalType": "struct INftPackages.User",
          "name": "",
          "type": "tuple"
        }
      ],
      "stateMutability": "view",
      "type": "function"
    },
    {
      "inputs": [
        {
          "internalType": "address",
          "name": "owner",
          "type": "address"
        },
        {
          "internalType": "address",
          "name": "operator",
          "type": "address"
        }
      ],
      "name": "isApprovedForAll",
      "outputs": [
        {
          "internalType": "bool",
          "name": "",
          "type": "bool"
        }
      ],
      "stateMutability": "view",
      "type": "function"
    },
    {
      "inputs": [],
      "name": "name",
      "outputs": [
        {
          "internalType": "string",
          "name": "",
          "type": "string"
        }
      ],
      "stateMutability": "view",
      "type": "function"
    },
    {
      "inputs": [
        {
          "internalType": "uint256",
          "name": "",
          "type": "uint256"
        }
      ],
      "name": "orders",
      "outputs": [
        {
          "internalType": "uint256",
          "name": "id",
          "type": "uint256"
        },
        {
          "internalType": "uint256",
          "name": "tokenId",
          "type": "uint256"
        },
        {
          "internalType": "address",
          "name": "user",
          "type": "address"
        },
        {
          "internalType": "uint256",
          "name": "packageId",
          "type": "uint256"
        },
        {
          "internalType": "uint256",
          "name": "amount",
          "type": "uint256"
        },
        {
          "internalType": "uint256",
          "name": "interestPerDay",
          "type": "uint256"
        },
        {
          "internalType": "uint256",
          "name": "interestEarned",
          "type": "uint256"
        },
        {
          "internalType": "uint256",
          "name": "createdAt",
          "type": "uint256"
        },
        {
          "internalType": "uint256",
          "name": "lastUpdatedAt",
          "type": "uint256"
        },
        {
          "internalType": "uint256",
          "name": "endedAt",
          "type": "uint256"
        }
      ],
      "stateMutability": "view",
      "type": "function"
    },
    {
      "inputs": [],
      "name": "owner",
      "outputs": [
        {
          "internalType": "address",
          "name": "",
          "type": "address"
        }
      ],
      "stateMutability": "view",
      "type": "function"
    },
    {
      "inputs": [
        {
          "internalType": "uint256",
          "name": "tokenId",
          "type": "uint256"
        }
      ],
      "name": "ownerOf",
      "outputs": [
        {
          "internalType": "address",
          "name": "",
          "type": "address"
        }
      ],
      "stateMutability": "view",
      "type": "function"
    },
    {
      "inputs": [
        {
          "internalType": "uint256",
          "name": "",
          "type": "uint256"
        }
      ],
      "name": "packages",
      "outputs": [
        {
          "internalType": "uint256",
          "name": "id",
          "type": "uint256"
        },
        {
          "internalType": "address",
          "name": "token",
          "type": "address"
        },
        {
          "internalType": "uint256",
          "name": "minPrice",
          "type": "uint256"
        },
        {
          "internalType": "uint256",
          "name": "maxPrice",
          "type": "uint256"
        },
        {
          "internalType": "uint256",
          "name": "priceOnTokenBase",
          "type": "uint256"
        },
        {
          "internalType": "uint256",
          "name": "interestPercent",
          "type": "uint256"
        },
        {
          "internalType": "uint256",
          "name": "duration",
          "type": "uint256"
        },
        {
          "internalType": "enum INftPackages.PackageStatus",
          "name": "status",
          "type": "uint8"
        }
      ],
      "stateMutability": "view",
      "type": "function"
    },
    {
      "inputs": [],
      "name": "pendingOwner",
      "outputs": [
        {
          "internalType": "address",
          "name": "",
          "type": "address"
        }
      ],
      "stateMutability": "view",
      "type": "function"
    },
    {
      "inputs": [],
      "name": "renounceOwnership",
      "outputs": [],
      "stateMutability": "nonpayable",
      "type": "function"
    },
    {
      "inputs": [
        {
          "internalType": "address",
          "name": "from",
          "type": "address"
        },
        {
          "internalType": "address",
          "name": "to",
          "type": "address"
        },
        {
          "internalType": "uint256",
          "name": "tokenId",
          "type": "uint256"
        }
      ],
      "name": "safeTransferFrom",
      "outputs": [],
      "stateMutability": "nonpayable",
      "type": "function"
    },
    {
      "inputs": [
        {
          "internalType": "address",
          "name": "from",
          "type": "address"
        },
        {
          "internalType": "address",
          "name": "to",
          "type": "address"
        },
        {
          "internalType": "uint256",
          "name": "tokenId",
          "type": "uint256"
        },
        {
          "internalType": "bytes",
          "name": "data",
          "type": "bytes"
        }
      ],
      "name": "safeTransferFrom",
      "outputs": [],
      "stateMutability": "nonpayable",
      "type": "function"
    },
    {
      "inputs": [
        {
          "internalType": "address",
          "name": "operator",
          "type": "address"
        },
        {
          "internalType": "bool",
          "name": "approved",
          "type": "bool"
        }
      ],
      "name": "setApprovalForAll",
      "outputs": [],
      "stateMutability": "nonpayable",
      "type": "function"
    },
    {
      "inputs": [
        {
          "internalType": "bytes4",
          "name": "interfaceId",
          "type": "bytes4"
        }
      ],
      "name": "supportsInterface",
      "outputs": [
        {
          "internalType": "bool",
          "name": "",
          "type": "bool"
        }
      ],
      "stateMutability": "view",
      "type": "function"
    },
    {
      "inputs": [],
      "name": "symbol",
      "outputs": [
        {
          "internalType": "string",
          "name": "",
          "type": "string"
        }
      ],
      "stateMutability": "view",
      "type": "function"
    },
    {
      "inputs": [
        {
          "internalType": "uint256",
          "name": "tokenId",
          "type": "uint256"
        }
      ],
      "name": "tokenURI",
      "outputs": [
        {
          "internalType": "string",
          "name": "",
          "type": "string"
        }
      ],
      "stateMutability": "view",
      "type": "function"
    },
    {
      "inputs": [
        {
          "internalType": "address",
          "name": "from",
          "type": "address"
        },
        {
          "internalType": "address",
          "name": "to",
          "type": "address"
        },
        {
          "internalType": "uint256",
          "name": "tokenId",
          "type": "uint256"
        }
      ],
      "name": "transferFrom",
      "outputs": [],
      "stateMutability": "nonpayable",
      "type": "function"
    },
    {
      "inputs": [
        {
          "internalType": "address",
          "name": "newOwner",
          "type": "address"
        }
      ],
      "name": "transferOwnership",
      "outputs": [],
      "stateMutability": "nonpayable",
      "type": "function"
    },
    {
      "inputs": [
        {
          "internalType": "uint256",
          "name": "packageId",
          "type": "uint256"
        },
        {
          "internalType": "enum INftPackages.PackageStatus",
          "name": "status",
          "type": "uint8"
        }
      ],
      "name": "updatePackageStatus",
      "outputs": [],
      "stateMutability": "nonpayable",
      "type": "function"
    },
    {
      "inputs": [
        {
          "internalType": "address",
          "name": "",
          "type": "address"
        }
      ],
      "name": "users",
      "outputs": [
        {
          "internalType": "address",
          "name": "user",
          "type": "address"
        },
        {
          "internalType": "address",
          "name": "referrer",
          "type": "address"
        },
        {
          "internalType": "uint256",
          "name": "totalRef",
          "type": "uint256"
        },
        {
          "internalType": "uint256",
          "name": "refEarned",
          "type": "uint256"
        },
        {
          "internalType": "uint256",
          "name": "refClaimed",
          "type": "uint256"
        }
      ],
      "stateMutability": "view",
      "type": "function"
    },
    {
      "inputs": [
        {
          "internalType": "uint256",
          "name": "orderId",
          "type": "uint256"
        }
      ],
      "name": "withdraw",
      "outputs": [],
      "stateMutability": "nonpayable",
      "type": "function"
    }
  ],
  "bytecode": "0x600880546001600160a01b03191673eeeeeeeeeeeeeeeeeeeeeeeeeeeeeeeeeeeeeeee17905560e06040526105dc60809081526103e860a0526101f460c05261004c90600c9060036101e9565b5060408051606081018252600f815260236020820152602d9181019190915261007990600d906003610238565b50348015610085575f5ffd5b5060405161345d38038061345d8339810160408190526100a4916102a5565b336040518060400160405280600b81526020016a4e66745061636b6167657360a81b815250604051806040016040528060068152602001654e4654504b4760d01b815250815f90816100f6919061036e565b506001610103828261036e565b5050506001600160a01b03811661013357604051631e4fbdf760e01b81525f600482015260240160405180910390fd5b61013c8161017c565b50600e80546001600160a01b039384166001600160a01b0319918216179091555f6009819055600a819055600b55600f8054929093169116179055610428565b600780546001600160a01b031916905561019581610198565b50565b600680546001600160a01b038381166001600160a01b0319831681179093556040519116919082907f8be0079c531659141344cd1fd0a4f28419497f9722a3daafe3b4186f6b6457e0905f90a35050565b828054828255905f5260205f20908101928215610228579160200282015b82811115610228578251829061ffff16905591602001919060010190610207565b50610234929150610276565b5090565b828054828255905f5260205f20908101928215610228579160200282015b82811115610228578251829060ff16905591602001919060010190610256565b5b80821115610234575f8155600101610277565b80516001600160a01b03811681146102a0575f5ffd5b919050565b5f5f604083850312156102b6575f5ffd5b6102bf8361028a565b91506102cd6020840161028a565b90509250929050565b634e487b7160e01b5f52604160045260245ffd5b600181811c908216806102fe57607f821691505b60208210810361031c57634e487b7160e01b5f52602260045260245ffd5b50919050565b601f82111561036957805f5260205f20601f840160051c810160208510156103475750805b601f840160051c820191505b81811015610366575f8155600101610353565b50505b505050565b81516001600160401b03811115610387576103876102d6565b61039b8161039584546102ea565b84610322565b6020601f8211600181146103cd575f83156103b65750848201515b5f19600385901b1c1916600184901b178455610366565b5f84815260208120601f198516915b828110156103fc57878501518255602094850194600190920191016103dc565b508482101561041957868401515f19600387901b60f8161c191681555b50505050600190811b01905550565b613028806104355f395ff3fe6080604052600436106101f1575f3560e01c806379ba509711610108578063b88d4fde1161009d578063d09ef2411161006d578063d09ef24114610760578063e30c39781461078c578063e985e9c5146107a9578063f2fde38b146107c8578063f90514f1146107e7575f5ffd5b8063b88d4fde14610679578063b99dfe1814610698578063c216212a146106c4578063c87b56dd14610741575f5ffd5b806395d89b41116100d857806395d89b41146104f3578063a22cb46514610507578063a85c38ef14610526578063a87430ba146105f2575f5ffd5b806379ba5097146104845780637aa961de146104985780637ae93087146104b75780638da5cb5b146104d6575f5ffd5b8063379607f5116101895780635fe2d689116101595780635fe2d689146103a95780636352211e146103c85780636f77926b146103e757806370a0823114610451578063715018a614610470575f5ffd5b8063379607f51461032b57806342842e0e14610358578063516cf680146103775780635b02c3c614610396575f5ffd5b8063095ea7b3116101c4578063095ea7b3146102a057806318f1c709146102c157806323b872dd146102ed5780632e1a7d4d1461030c575f5ffd5b806301bc45c9146101f557806301ffc9a71461023157806306fdde0314610260578063081812fc14610281575b5f5ffd5b348015610200575f5ffd5b50600e54610214906001600160a01b031681565b6040516001600160a01b0390911681526020015b60405180910390f35b34801561023c575f5ffd5b5061025061024b3660046128e3565b610806565b6040519015158152602001610228565b34801561026b575f5ffd5b50610274610857565b604051610228919061292c565b34801561028c575f5ffd5b5061021461029b36600461293e565b6108e6565b3480156102ab575f5ffd5b506102bf6102ba366004612970565b61090d565b005b3480156102cc575f5ffd5b506102e06102db366004612998565b61091c565b6040516102289190612a28565b3480156102f8575f5ffd5b506102bf610307366004612a76565b610ab3565b348015610317575f5ffd5b506102bf61032636600461293e565b610b41565b348015610336575f5ffd5b5061034a61034536600461293e565b610d77565b604051908152602001610228565b348015610363575f5ffd5b506102bf610372366004612a76565b6111a7565b348015610382575f5ffd5b50600f54610214906001600160a01b031681565b61034a6103a4366004612ab0565b6111c6565b3480156103b4575f5ffd5b5061034a6103c336600461293e565b6118f2565b3480156103d3575f5ffd5b506102146103e236600461293e565b6119b0565b3480156103f2575f5ffd5b50610406610401366004612998565b6119ba565b604051610228919081516001600160a01b0390811682526020808401519091169082015260408083015190820152606080830151908201526080918201519181019190915260a00190565b34801561045c575f5ffd5b5061034a61046b366004612998565b611a55565b34801561047b575f5ffd5b506102bf611a9a565b34801561048f575f5ffd5b506102bf611aad565b3480156104a3575f5ffd5b5061034a6104b2366004612998565b611af1565b3480156104c2575f5ffd5b506102bf6104d1366004612b11565b611c84565b3480156104e1575f5ffd5b506006546001600160a01b0316610214565b3480156104fe575f5ffd5b50610274611d0f565b348015610512575f5ffd5b506102bf610521366004612b48565b611d1e565b348015610531575f5ffd5b5061059a61054036600461293e565b60116020525f90815260409020805460018201546002830154600384015460048501546005860154600687015460078801546008890154600990990154979896976001600160a01b0390961696949593949293919290918a565b604080519a8b5260208b01999099526001600160a01b03909716978901979097526060880194909452608087019290925260a086015260c085015260e084015261010083019190915261012082015261014001610228565b3480156105fd575f5ffd5b5061064661060c366004612998565b60106020525f9081526040902080546001820154600283015460038401546004909401546001600160a01b03938416949390921692909185565b604080516001600160a01b039687168152959094166020860152928401919091526060830152608082015260a001610228565b348015610684575f5ffd5b506102bf610693366004612bec565b611d29565b3480156106a3575f5ffd5b506106b76106b236600461293e565b611d41565b6040516102289190612cde565b3480156106cf575f5ffd5b5061072d6106de36600461293e565b60126020525f90815260409020805460018201546002830154600384015460048501546005860154600687015460079097015495966001600160a01b0390951695939492939192909160ff1688565b604051610228989796959493929190612d47565b34801561074c575f5ffd5b5061027461075b36600461293e565b611dea565b34801561076b575f5ffd5b5061077f61077a36600461293e565b611e5b565b6040516102289190612d9b565b348015610797575f5ffd5b506007546001600160a01b0316610214565b3480156107b4575f5ffd5b506102506107c3366004612daa565b611eef565b3480156107d3575f5ffd5b506102bf6107e2366004612998565b611f1c565b3480156107f2575f5ffd5b506102bf610801366004612dd2565b611f8d565b5f6001600160e01b031982166380ac58cd60e01b148061083657506001600160e01b03198216635b5e139f60e01b145b8061085157506301ffc9a760e01b6001600160e01b03198316145b92915050565b60605f805461086590612e4c565b80601f016020809104026020016040519081016040528092919081815260200182805461089190612e4c565b80156108dc5780601f106108b3576101008083540402835291602001916108dc565b820191905f5260205f20905b8154815290600101906020018083116108bf57829003601f168201915b5050505050905090565b5f6108f0826120d1565b505f828152600460205260409020546001600160a01b0316610851565b610918828233612109565b5050565b60605f805b600a54811015610964575f818152601160205260409020600201546001600160a01b0380861691160361095c578161095881612e98565b9250505b600101610921565b505f8167ffffffffffffffff81111561097f5761097f612b7d565b6040519080825280602002602001820160405280156109b857816020015b6109a5612826565b81526020019060019003908161099d5790505b5090505f805b600a54811015610aa9575f818152601160205260409020600201546001600160a01b03808816911603610aa1575f818152601160209081526040918290208251610140810184528154815260018201549281019290925260028101546001600160a01b0316928201929092526003820154606082015260048201546080820152600582015460a0820152600682015460c0820152600782015460e082015260088201546101008201526009909101546101208201528351849084908110610a8757610a87612eb0565b60200260200101819052508180610a9d90612e98565b9250505b6001016109be565b5090949350505050565b6001600160a01b038216610ae157604051633250574960e11b81525f60048201526024015b60405180910390fd5b5f610aed838333612116565b9050836001600160a01b0316816001600160a01b031614610b3b576040516364283d7b60e01b81526001600160a01b0380861660048301526024820184905282166044820152606401610ad8565b50505050565b5f81815260116020526040902060028101546001600160a01b03163314610b9a5760405162461bcd60e51b815260206004820152600d60248201526c2737ba103a34329037bbb732b960991b6044820152606401610ad8565b5f816004015411610be45760405162461bcd60e51b81526020600482015260146024820152734e6f2066756e647320746f20776974686472617760601b6044820152606401610ad8565b4260098201555f600480830182905560058084018390556003808501548452601260209081526040808620815161010081018352815481526001808301546001600160a01b0316948201949094526002820154928101929092529283015460608201529382015460808501529181015460a0840152600681015460c08401526007810154909160e084019160ff1690811115610c8257610c82612caa565b6001811115610c9357610c93612caa565b9052506020810151600284015460048086015460405163a9059cbb60e01b81526001600160a01b03938416928101929092526024820152929350169063a9059cbb906044016020604051808303815f875af1158015610cf4573d5f5f3e3d5ffd5b505050506040513d601f19601f82011682018060405250810190610d189190612ec4565b50610d268260010154612208565b600282015460048301546040519081526001600160a01b039091169084907ff11bcf11c0e4aa668f1767272edb2a7df47eb7187e6f94b487fdfde9ea6c2a92906020015b60405180910390a3505050565b5f818152601160205260408082209051635fe2d68960e01b81526004810184905282903090635fe2d68990602401602060405180830381865afa158015610dc0573d5f5f3e3d5ffd5b505050506040513d601f19601f82011682018060405250810190610de49190612edf565b90505f8111610e2c5760405162461bcd60e51b81526020600482015260146024820152734e6f20696e74657265737420746f20636c61696d60601b6044820152606401610ad8565b6002808301546001600160a01b039081165f908152601060209081526040808320815160a081018352815486168152600182015490951692850192909252938101549383019390935260038301546060830152600490920154608082015260068401805491928492610e9f908490612ef6565b90915550504260088401556020808201516001600160a01b039081165f908152601083526040808220815160a0810183528154851681526001820154909416948401949094526002840154908301526003830154606083015260049092015460808201525b600c5460ff8316116110dd5780516001600160a01b031615801590610f4b5750600d8260ff1681548110610f3a57610f3a612eb0565b905f5260205f200154816040015110155b156110dd575f612710600c8460ff1681548110610f6a57610f6a612eb0565b905f5260205f20015486610f7e9190612f09565b610f889190612f20565b90508082606001818151610f9c9190612ef6565b90525081516001600160a01b039081165f90815260106020908152604091829020855181549085166001600160a01b0319918216811783559287015160018301805491871691909216179055828601516002820155606086015160038201556080860151600491820155600f54925163a9059cbb60e01b8152908101919091526024810184905291169063a9059cbb906044016020604051808303815f875af115801561104b573d5f5f3e3d5ffd5b505050506040513d601f19601f8201168201806040525081019061106f9190612ec4565b506020918201516001600160a01b039081165f90815260108452604090819020815160a081018352815484168152600182015490931694830194909452600284015490820152600383015460608201526004909201546080830152826110d481612f3f565b93505050610f04565b600f54600286015460405163a9059cbb60e01b81526001600160a01b0391821660048201526024810187905291169063a9059cbb906044016020604051808303815f875af1158015611131573d5f5f3e3d5ffd5b505050506040513d601f19601f820116820180604052508101906111559190612ec4565b5060028501546040518581526001600160a01b039091169088907f7cd6a1c27e2135759e4a6f35c1aa8d62cfa83cf08b6434fab4b585ef1bc8fd9a9060200160405180910390a3509195945050505050565b6111c183838360405180602001604052805f815250611d29565b505050565b5f5f83116112075760405162461bcd60e51b815260206004820152600e60248201526d125b9d985b1a5908185b5bdd5b9d60921b6044820152606401610ad8565b5f848152601260209081526040808320815161010081018352815481526001808301546001600160a01b0316948201949094526002820154928101929092526003810154606083015260048101546080830152600581015460a0830152600681015460c083015260078101549192909160e084019160ff9091169081111561129157611291612caa565b60018111156112a2576112a2612caa565b90525060208101519091506001600160a01b03166112f45760405162461bcd60e51b815260206004820152600f60248201526e496e76616c6964207061636b61676560881b6044820152606401610ad8565b8060400151841015801561130c575080606001518411155b6113495760405162461bcd60e51b815260206004820152600e60248201526d125b9d985b1a5908185b5bdd5b9d60921b6044820152606401610ad8565b80602001516001600160a01b0316876001600160a01b03161461139e5760405162461bcd60e51b815260206004820152600d60248201526c24b73b30b634b2103a37b5b2b760991b6044820152606401610ad8565b5f6127108260a00151670de0b6b3a76400008460800151886113c09190612f09565b6113ca9190612f20565b6113d49190612f09565b6113de9190612f20565b9050604051806101400160405280600a5481526020016009548152602001886001600160a01b031681526020018781526020018681526020018281526020015f81526020014281526020014281526020018360c001514261143f9190612ef6565b9052600a545f9081526011602090815260409182902083518155908301516001820155908201516002820180546001600160a01b0319166001600160a01b03928316179055606083015160038301556080830151600483015560a0830151600583015560c0830151600683015560e0830151600783015561010083015160088084019190915561012090930151600990920191909155905481169089161461161c576040516370a0823160e01b81526001600160a01b0388811660048301528691908a16906370a0823190602401602060405180830381865afa158015611528573d5f5f3e3d5ffd5b505050506040513d601f19601f8201168201806040525081019061154c9190612edf565b101561159a5760405162461bcd60e51b815260206004820152601a60248201527f496e73756666696369656e7420746f6b656e2062616c616e63650000000000006044820152606401610ad8565b600e546040516323b872dd60e01b81526001600160a01b038981166004830152918216602482015260448101879052908916906323b872dd906064016020604051808303815f875af11580156115f2573d5f5f3e3d5ffd5b505050506040513d601f19601f820116820180604052508101906116169190612ec4565b50611698565b8434146116605760405162461bcd60e51b8152602060048201526012602482015271125b9d985b1a590811551208185b5bdd5b9d60721b6044820152606401610ad8565b600e546040516001600160a01b03909116903480156108fc02915f818181858888f19350505050158015611696573d5f5f3e3d5ffd5b505b6001600160a01b038088165f90815260106020908152604091829020825160a081018452815485168082526001830154909516928101929092526002810154928201929092526003820154606082015260049091015460808201529061177c576040805160a0810182526001600160a01b03808b1680835288821660208085019182525f85870181815260608701828152608088018381529583526010909352969020945185549085166001600160a01b03199182161786559151600186018054919095169216919091179092559251600283015551600382015590516004909101555b6001600160a01b038086165f90815260106020908152604091829020825160a08101845281548516808252600183015490951692810192909252600281015492820192909252600382015460608201526004909101546080820152901561185a576001816040018181516117f09190612ef6565b9052506001600160a01b038087165f90815260106020908152604091829020845181549085166001600160a01b0319918216178255918501516001820180549190951692169190911790925582015160028201556060820151600382015560808201516004909101555b61186689600954612240565b886001600160a01b0316600954600a547f356cf9e3302612fb991ebbe80fed51b00a7c188a9ba73c6cdded6dffa5a413928b8b6040516118b0929190918252602082015260400190565b60405180910390a4600a5460098054905f6118ca83612e98565b9091555050600a8054905f6118de83612e98565b90915550909b9a5050505050505050505050565b5f8181526011602090815260408083208151610140810183528154815260018201549381019390935260028101546001600160a01b0316918301919091526003810154606083015260048101546080830152600581015460a0830152600681015460c0830152600781015460e0830152600881015461010083018190526009909101546101208301528290620151809061198c9042612f5d565b6119969190612f20565b90508160a00151816119a89190612f09565b949350505050565b5f610851826120d1565b6119f96040518060a001604052805f6001600160a01b031681526020015f6001600160a01b031681526020015f81526020015f81526020015f81525090565b506001600160a01b039081165f90815260106020908152604091829020825160a0810184528154851681526001820154909416918401919091526002810154918301919091526003810154606083015260040154608082015290565b5f6001600160a01b038216611a7f576040516322718ad960e21b81525f6004820152602401610ad8565b506001600160a01b03165f9081526003602052604090205490565b611aa26122a1565b611aab5f6122ce565b565b60075433906001600160a01b03168114611ae55760405163118cdaa760e01b81526001600160a01b0382166004820152602401610ad8565b611aee816122ce565b50565b6001600160a01b038082165f90815260106020526040812080549192909116611b4d5760405162461bcd60e51b815260206004820152600e60248201526d155cd95c881b9bdd08199bdd5b9960921b6044820152606401610ad8565b5f816003015411611ba05760405162461bcd60e51b815260206004820152601c60248201527f4e6f20726566657272616c207265776172647320746f20636c61696d000000006044820152606401610ad8565b6003810180545f9182905560048301805491928392611bc0908490612ef6565b9091555050600f5460405163a9059cbb60e01b81526001600160a01b038681166004830152602482018490529091169063a9059cbb906044016020604051808303815f875af1158015611c15573d5f5f3e3d5ffd5b505050506040513d601f19601f82011682018060405250810190611c399190612ec4565b50836001600160a01b03167f79c3760047e8d4ea109570112ef39d6f758cccf9d64193dfc3885308368c5f8e82604051611c7591815260200190565b60405180910390a29392505050565b611c8c6122a1565b5f82815260126020526040902060018101546001600160a01b0316611ce55760405162461bcd60e51b815260206004820152600f60248201526e496e76616c6964207061636b61676560881b6044820152606401610ad8565b60078101805483919060ff191660018381811115611d0557611d05612caa565b0217905550505050565b60606001805461086590612e4c565b6109183383836122e7565b611d34848484610ab3565b610b3b338585858561237d565b611d49612878565b5f82815260126020908152604091829020825161010081018452815481526001808301546001600160a01b0316938201939093526002820154938101939093526003810154606084015260048101546080840152600581015460a0840152600681015460c08401526007810154909160e084019160ff1690811115611dd057611dd0612caa565b6001811115611de157611de1612caa565b90525092915050565b6060611df5826120d1565b505f611e0b60408051602081019091525f815290565b90505f815111611e295760405180602001604052805f815250611e54565b80611e33846124a5565b604051602001611e44929190612f87565b6040516020818303038152906040525b9392505050565b611e63612826565b505f908152601160209081526040918290208251610140810184528154815260018201549281019290925260028101546001600160a01b0316928201929092526003820154606082015260048201546080820152600582015460a0820152600682015460c0820152600782015460e0820152600882015461010082015260099091015461012082015290565b6001600160a01b039182165f90815260056020908152604080832093909416825291909152205460ff1690565b611f246122a1565b600780546001600160a01b0383166001600160a01b03199091168117909155611f556006546001600160a01b031690565b6001600160a01b03167f38d16b8cac22d99fc7c124b9cd0de2d3fa1faef420bfe791d8c362d765e2270060405160405180910390a350565b611f956122a1565b600b545f908152601260209081526040918290208351815590830151600180830180546001600160a01b0319166001600160a01b0390931692909217909155918301516002820155606083015160038201556080830151600482015560a0830151600582015560c0830151600682015560e0830151600782018054859460ff1990911690838181111561202a5761202a612caa565b021790555050600b5460208301516040808501516060860151608087015160a088015160c089015194519697507fb8f4c8c99f392f0a31a5cdaa4a5a15a3caed714055cafdc5ae1b2c8bc80b5ad0966120b29695906001600160a01b03969096168652602086019490945260408501929092526060840152608083015260a082015260c00190565b60405180910390a2600b8054905f6120c983612e98565b919050555050565b5f818152600260205260408120546001600160a01b03168061085157604051637e27328960e01b815260048101849052602401610ad8565b6111c18383836001612535565b5f828152600260205260408120546001600160a01b039081169083161561214257612142818486612639565b6001600160a01b0381161561217c5761215d5f855f5f612535565b6001600160a01b0381165f90815260036020526040902080545f190190555b6001600160a01b038516156121aa576001600160a01b0385165f908152600360205260409020805460010190555b5f8481526002602052604080822080546001600160a01b0319166001600160a01b0389811691821790925591518793918516917fddf252ad1be2c89b69c2b068fc378daa952ba7f163c4a11628f55a4df523b3ef91a4949350505050565b5f6122145f835f612116565b90506001600160a01b03811661091857604051637e27328960e01b815260048101839052602401610ad8565b6001600160a01b03821661226957604051633250574960e11b81525f6004820152602401610ad8565b5f61227583835f612116565b90506001600160a01b038116156111c1576040516339e3563760e11b81525f6004820152602401610ad8565b6006546001600160a01b03163314611aab5760405163118cdaa760e01b8152336004820152602401610ad8565b600780546001600160a01b0319169055611aee8161269d565b6001600160a01b03821661231957604051630b61174360e31b81526001600160a01b0383166004820152602401610ad8565b6001600160a01b038381165f81815260056020908152604080832094871680845294825291829020805460ff191686151590811790915591519182527f17307eab39ab6107e8899845ad3d59bd9653f200f220920489ca2b5937696c319101610d6a565b6001600160a01b0383163b1561249e57604051630a85bd0160e11b81526001600160a01b0384169063150b7a02906123bf908890889087908790600401612f9b565b6020604051808303815f875af19250505080156123f9575060408051601f3d908101601f191682019092526123f691810190612fd7565b60015b612460573d808015612426576040519150601f19603f3d011682016040523d82523d5f602084013e61242b565b606091505b5080515f0361245857604051633250574960e11b81526001600160a01b0385166004820152602401610ad8565b805160208201fd5b6001600160e01b03198116630a85bd0160e11b1461249c57604051633250574960e11b81526001600160a01b0385166004820152602401610ad8565b505b5050505050565b60605f6124b1836126ee565b60010190505f8167ffffffffffffffff8111156124d0576124d0612b7d565b6040519080825280601f01601f1916602001820160405280156124fa576020820181803683370190505b5090508181016020015b5f19016f181899199a1a9b1b9c1cb0b131b232b360811b600a86061a8153600a850494508461250457509392505050565b808061254957506001600160a01b03821615155b1561260a575f612558846120d1565b90506001600160a01b038316158015906125845750826001600160a01b0316816001600160a01b031614155b801561259757506125958184611eef565b155b156125c05760405163a9fbf51f60e01b81526001600160a01b0384166004820152602401610ad8565b81156126085783856001600160a01b0316826001600160a01b03167f8c5be1e5ebec7d5bd14f71427d1e84f3dd0314c0f7b2291e5b200ac8c7c3b92560405160405180910390a45b505b50505f90815260046020526040902080546001600160a01b0319166001600160a01b0392909216919091179055565b6126448383836127c5565b6111c1576001600160a01b03831661267257604051637e27328960e01b815260048101829052602401610ad8565b60405163177e802f60e01b81526001600160a01b038316600482015260248101829052604401610ad8565b600680546001600160a01b038381166001600160a01b0319831681179093556040519116919082907f8be0079c531659141344cd1fd0a4f28419497f9722a3daafe3b4186f6b6457e0905f90a35050565b5f8072184f03e93ff9f4daa797ed6e38ed64bf6a1f0160401b831061272c5772184f03e93ff9f4daa797ed6e38ed64bf6a1f0160401b830492506040015b6d04ee2d6d415b85acef81000000008310612758576d04ee2d6d415b85acef8100000000830492506020015b662386f26fc10000831061277657662386f26fc10000830492506010015b6305f5e100831061278e576305f5e100830492506008015b61271083106127a257612710830492506004015b606483106127b4576064830492506002015b600a83106108515760010192915050565b5f6001600160a01b038316158015906119a85750826001600160a01b0316846001600160a01b031614806127fe57506127fe8484611eef565b806119a85750505f908152600460205260409020546001600160a01b03908116911614919050565b6040518061014001604052805f81526020015f81526020015f6001600160a01b031681526020015f81526020015f81526020015f81526020015f81526020015f81526020015f81526020015f81525090565b6040518061010001604052805f81526020015f6001600160a01b031681526020015f81526020015f81526020015f81526020015f81526020015f81526020015f60018111156128c9576128c9612caa565b905290565b6001600160e01b031981168114611aee575f5ffd5b5f602082840312156128f3575f5ffd5b8135611e54816128ce565b5f81518084528060208401602086015e5f602082860101526020601f19601f83011685010191505092915050565b602081525f611e5460208301846128fe565b5f6020828403121561294e575f5ffd5b5035919050565b80356001600160a01b038116811461296b575f5ffd5b919050565b5f5f60408385031215612981575f5ffd5b61298a83612955565b946020939093013593505050565b5f602082840312156129a8575f5ffd5b611e5482612955565b805182526020810151602083015260408101516129d960408401826001600160a01b03169052565b50606081015160608301526080810151608083015260a081015160a083015260c081015160c083015260e081015160e08301526101008101516101008301526101208101516101208301525050565b602080825282518282018190525f918401906040840190835b81811015612a6b57612a548385516129b1565b602093909301926101409290920191600101612a41565b509095945050505050565b5f5f5f60608486031215612a88575f5ffd5b612a9184612955565b9250612a9f60208501612955565b929592945050506040919091013590565b5f5f5f5f5f60a08688031215612ac4575f5ffd5b612acd86612955565b9450612adb60208701612955565b93506040860135925060608601359150612af760808701612955565b90509295509295909350565b80356002811061296b575f5ffd5b5f5f60408385031215612b22575f5ffd5b82359150612b3260208401612b03565b90509250929050565b8015158114611aee575f5ffd5b5f5f60408385031215612b59575f5ffd5b612b6283612955565b91506020830135612b7281612b3b565b809150509250929050565b634e487b7160e01b5f52604160045260245ffd5b604051610100810167ffffffffffffffff81118282101715612bb557612bb5612b7d565b60405290565b604051601f8201601f1916810167ffffffffffffffff81118282101715612be457612be4612b7d565b604052919050565b5f5f5f5f60808587031215612bff575f5ffd5b612c0885612955565b9350612c1660208601612955565b925060408501359150606085013567ffffffffffffffff811115612c38575f5ffd5b8501601f81018713612c48575f5ffd5b803567ffffffffffffffff811115612c6257612c62612b7d565b612c75601f8201601f1916602001612bbb565b818152886020838501011115612c89575f5ffd5b816020840160208301375f6020838301015280935050505092959194509250565b634e487b7160e01b5f52602160045260245ffd5b60028110612cda57634e487b7160e01b5f52602160045260245ffd5b9052565b5f610100820190508251825260018060a01b03602084015116602083015260408301516040830152606083015160608301526080830151608083015260a083015160a083015260c083015160c083015260e0830151612d4060e0840182612cbe565b5092915050565b8881526001600160a01b038816602082015260408101879052606081018690526080810185905260a0810184905260c081018390526101008101612d8e60e0830184612cbe565b9998505050505050505050565b610140810161085182846129b1565b5f5f60408385031215612dbb575f5ffd5b612dc483612955565b9150612b3260208401612955565b5f610100828403128015612de4575f5ffd5b50612ded612b91565b82358152612dfd60208401612955565b602082015260408381013590820152606080840135908201526080808401359082015260a0808401359082015260c08084013590820152612e4060e08401612b03565b60e08201529392505050565b600181811c90821680612e6057607f821691505b602082108103612e7e57634e487b7160e01b5f52602260045260245ffd5b50919050565b634e487b7160e01b5f52601160045260245ffd5b5f60018201612ea957612ea9612e84565b5060010190565b634e487b7160e01b5f52603260045260245ffd5b5f60208284031215612ed4575f5ffd5b8151611e5481612b3b565b5f60208284031215612eef575f5ffd5b5051919050565b8082018082111561085157610851612e84565b808202811582820484141761085157610851612e84565b5f82612f3a57634e487b7160e01b5f52601260045260245ffd5b500490565b5f60ff821660ff8103612f5457612f54612e84565b60010192915050565b8181038181111561085157610851612e84565b5f81518060208401855e5f93019283525090919050565b5f6119a8612f958386612f70565b84612f70565b6001600160a01b03858116825284166020820152604081018390526080606082018190525f90612fcd908301846128fe565b9695505050505050565b5f60208284031215612fe7575f5ffd5b8151611e54816128ce56fea2646970667358221220d8e5fd09a38eb98d61d642bd5413d3118d7de96c1cbe7acbcc31a7d83f01d86f64736f6c634300081c0033",
  "linkReferences": {},
  "deployedLinkReferences": {},
  "immutableReferences": {},
  "inputSourceName": "project/contracts/NftPackages.sol",
  "buildInfoId": "solc-0_8_28-00a2c9ad813be51dac0dec24aef2c063da66c8a0"
}